:020000040800F2
:10000000781400209D010008E9470008873F000898
:100010004D460008A1090008B54C0008000000008A
:100020000000000000000000000000005948000827
:100030004D0F0008000000000B4800085B48000856
:10004000B7010008B7010008B7010008B7010008B0
:10005000B7010008B7010008B7010008B7010008A0
:10006000B7010008B7010008B7010008490E0008F1
:10007000550E0008B7010008B7010008B7010008D5
:10008000B7010008B7010008AD070008B701000874
:10009000B7010008B7010008B7010008B701000860
:1000A000B7010008B7010008B7010008B701000850
:1000B000B7010008B701000800000000B701000800
:1000C000B70100080000000000000000B7010008B0
:1000D00000000000B7010008B7010008B7010008E0
:1000E000B7010008B7010008000000000000000090
:1000F0000000000000000000000000000000000000
:1001000000000000000000000000000000000000EF
:10011000000000000000000049490008B701000885
:1001200000000000000000000000000000000000CF
:1001300000000000000000000000000000000000BF
:10014000810A00088D0A000800000000B7010008BD
:10015000B7010008B7010008B7010008B70100089F
:10016000B7010008B701000800000000000000000F
:10017000000000000000000000000000000000007F
:1001800000000000B7010008DFF80CD000F0FCFA16
:10019000004800477D560008781400200648804734
:1001A00006480047FEE7FEE7FEE7FEE7FEE7FEE75C
:1001B000FEE7FEE7FEE7FEE7E148000889010008E8
:1001C000202A04DB203A21FA02F00021704721FAAC
:1001D00002F3D040C2F12002914008431946704713
:1001E0002DE9FE4F804681EA0300C00F0C460090C7
:1001F00021F0004123F00045B8EB0200A94105D2EF
:100200004046214690461C460B46024623F00040DD
:10021000104347D0270DC7F30A00C3F30A510290D9
:10022000401A019040286BDAC3F3130040F4801B9E
:100230000098924620B10023D2EB030A63EB0B0B2C
:1002400001985946C0F14002504600F0BFF90646F9
:100250000D4650465946019A00F0C7F910EB0800C8
:100260006141002487EA115284EAE7731A4340D0BF
:10027000009A62B3019A012A4FEA075215DC001B6B
:1002800061EB02014FF0004202EA0752CDE9004261
:10029000001C41F5801132462B4600F0FEF903B0F8
:1002A000BDE8F08F40462146F9E7001B61EB0201F3
:1002B000001C41F5801300185B412018A2F50017BF
:1002C00047EB030140EAD570B6196D4111E06D08A6
:1002D0004FEA360645EAC0754FEA0752001B61EB4C
:1002E0000201001C41F5801149084FEA3000001955
:1002F000514132462B4603B0BDE8F04F00F0BEB985
:100300000098012240000023D0EB020263EBE0736F
:10031000009821464FEAE074B8EB000061EB04015D
:10032000E9E783F000435BE781F0004158E72DE9FE
:10033000FE4F81EA030404F0004421F000410094E0
:100340004FF0000B23F0004350EA01045ED052EA64
:1003500003045BD0C3F30A54C1F30A552C44A4F23E
:10036000F3340194A0FB0254C1F3130141F4801152
:10037000C3F3130343F4801301FB024400FB034E59
:10038000840A970A44EA815447EA8357A4FB076822
:1003900002958D0A05FB07854FEA932C04FB0C544C
:1003A0002705029D4FEA065847EA1637B5EB0805C0
:1003B0006EEB070C870E920E47EA811742EA831212
:1003C000A7FB0201B6EB0B0164EB00042B0D43EA23
:1003D0000C335E1844EB1C50DA465146E7FB020131
:1003E000C5F313044FEA0B3343EA14534FEA0432C4
:1003F000019C43EA0603A4F10C040294009CCDE99D
:1004000000B400F04AF903B0BDE8F08F00200146C7
:10041000F9E72DE9F04D81EA030404F0004B21F0E7
:10042000004514464FF0000A23F0004150EA05024F
:1004300020D054EA01021DD0C5F30A570246C5F385
:100440001303C1F31300C1F30A5640F4801543F4BB
:100450008013A7EB0608101BD64608F2FD3873EB95
:10046000050002D308F1010801E092185B41B8F1E0
:10047000000F03DA00200146BDE8F08D00204FF4A4
:100480008011064684460EE0171B73EB050705D363
:10049000121B63EB050306434CEA010C49084FEAC3
:1004A000300092185B4150EA0107EDD152EA030097
:1004B00012D082EA040083EA0501084305D0101B2C
:1004C000AB4106D20122002306E000224FF0004398
:1004D00002E06FF0010253101AEB06004CEB0851DA
:1004E00010EB0A0041EB0B01BDE8F04D00F0C6B87F
:1004F0000EB540F2334102910021CDE900110A46C8
:100500000B4600F0CAF803B000BDC1F30A5210B5A3
:10051000C1F3130140F2FF3341F480119A4201DA32
:10052000002010BD40F233439A42A2F2334203DC72
:100530005242FFF745FE10BD904010BD00F0004252
:1005400030F000400AD0C10D01F56071C0F3160013
:1005500042EA0151C208400711437047002001469A
:100560007047000030B5041E71F1000404DB4FF049
:100570000044404264EB0101141E73F1000405DBEA
:100580001C464FF00043524263EB0403994208BFFC
:10059000904230BD01F0004330B421F0004150EAF8
:1005A000010206D00A0DA2F56072C1F31301002A00
:1005B00002DC30BC00207047440F44EAC104C10093
:1005C000E01830BC00EBC25000F021B8202A04DB58
:1005D000203A00FA02F1002070479140C2F1200356
:1005E00020FA03F3194390407047202A06DBCB170B
:1005F000203A41FA02F043EAE07306E041FA02F3DE
:10060000D040C2F1200291400843194670470029AA
:10061000A8BF7047401C490008BF20F00100704788
:1006200010B4B0FA80FC00FA0CF050EA010404BFE8
:1006300010BC704749B1CCF1200421FA04F411FA3E
:100640000CF118BF012121430843A3EB0C01CB1D82
:100650004FEA00614FEA102042BF002010BC7047F3
:1006600000EBC35010440029A4BF10BC7047401CCD
:10067000490008BF20F0010010BC704710B5141EDF
:1006800073F1000408DA401C41F1000192185B414B
:100690001A4301D120F0010010BD2DE9F04D924622
:1006A0009B4611B1B1FA81F202E0B0FA80F2203239
:1006B0009046FFF78BFF04460F4640EA0A0041EAE6
:1006C0000B0153465A46084313D0114653EA010022
:1006D00019D0C8F140025046FFF772FD05460E469C
:1006E000504659464246FFF771FF084305D00120A6
:1006F00004E020463946BDE8F08D0020054346EA77
:10070000E0762C4337430A986305E40AA0EB08001F
:100710000022FD0A44EA47540A3002D5002001466F
:10072000E9E7010510196941DDE90845001969414A
:10073000BDE8F04DA2E70EB5C10F80EAE0700844B5
:10074000CA07002140F233438DE80E000A460B46EB
:10075000FFF7A3FF03B000BD30B5041E71F1000424
:1007600004DB4FF00044404264EB0101141E73F1BE
:10077000000405DB1C464FF00043524263EB0403C8
:100780008B4208BF824230BD064C074D06E0E06850
:1007900040F0010394E8070098471034AC42F6D3C8
:1007A000FFF7F6FC80630008A063000810B504485A
:1007B00000F01AFFBDE81040024800F015BF00002D
:1007C0003C0D0020900D002070B5044600202268EA
:1007D000936813F00C0F4ED0D3689B0111D5E369D9
:1007E000012B0ED1A369012B0BD10C21234B02E06D
:1007F000984232D2401C1568ED436D06F8D4402073
:10080000106060290CD020688268520706D5826883
:10081000920703D4826842F0100282600C290AD049
:1008200020688268120706D58268920703D482681E
:1008300042F020028260602908D06C2904D004258F
:1008400001F0D4FF064612E00C25F9E70825F7E78A
:1008500001F0CCFF801B0B2809D9606C40F0100020
:100860006064A06C40F00100A064012070BD2068AD
:1008700080682842ECD1002070BD0000009409007F
:100880000146406A426C12F0500F03D0C06B026BFD
:1008900008461047416C41F4007141640168C96821
:1008A00011F4406F0CD1C16951B9416C21F48071D0
:1008B0004164416CC90403D4416C41F001014164BD
:1008C00000F004BE406A416C41F040014164816C1B
:1008D00041F00401816400F086BE406A00F082BEEF
:1008E00070B504460068816801F00301012925D133
:1008F0000168C90722D0816801F00D0101290FD1DB
:10090000816841F00201816021680320086001F0E4
:100910006DFF05460EE001F069FF401B022809D972
:10092000606C40F010006064A06C40F00100A064B6
:10093000012070BD20688068C007ECD1002070BD28
:1009400070B504460068816801F00301012902D1F5
:100950000168C9071FD18168104A11420CD1816812
:1009600041F00101816001F041FF05460EE001F018
:100970003DFF401B022809D9606C40F01000606404
:10098000A06C40F00100A064012070BD20680068E8
:10099000C043C007EBD1002070BD00003F000080C5
:1009A000FEE7000010B54905040109482044C0F8DD
:1009B00080150821C0F88415C0F88825C0F88C354A
:1009C000D0F8801541F00101C0F8801510BD00007D
:1009D0000060004012490A68520106D5014610EE37
:1009E000903A10EE102A002012E00A68120106D593
:1009F000014610EE903A10EE102A012008E0096836
:100A0000C90007D5014610EE903A10EE102A0220D8
:100A1000FFF7C8BF0349886D401C88657047000018
:100A20000864004000000020144A10B5136843F029
:100A300001031360131D1C6824F001041C600F4B9C
:100A40000C331C6844F001041C600C4B14331C680C
:100A500024F001041C60094B1C331C6844F00104A1
:100A60001C60064B4005403318604805191D08609E
:100A7000106820F00100106010BD0000006600400A
:100A8000014801F081BA0000280E0020014801F061
:100A90007BBA0000540E002010B50B4801F048F955
:100AA000094801F064F90021074800F0ADFA002878
:100AB000F9D120220549044801F0B6F8BDE81040FC
:100AC000014801F049B800003C0D0020D80000208A
:100AD00010B50B4801F02CF9094801F048F9002144
:100AE000074800F091FA0028F9D140F26A2205493E
:100AF000034801F099F8BDE81040014801F02CB816
:100B0000900D0020580100202DE9F04100F020FA5E
:100B1000044680B240F6F871FFF786FF5249086834
:100B200080076ED051480068504A083212684F4B17
:100B30000C331B680B6843F020030B604C4BD4EB69
:100B4000505106D001296AD002296AD0032972D0F7
:100B50007CE0D0B2052802D91C78012C76D1D8715E
:100B6000042803D0002405280AD000E00124002531
:100B70002C434FF000064FF0010503D05D7202E0F8
:100B80000125F5E75E72062803D00024072806D069
:100B900000E0012400273C4303D01D7202E001273E
:100BA000F9E71E7218B1002406280BD000E00124DA
:100BB0000026344300D09D72012805D00024072868
:100BC0000FD002E00126F4E7012400252C434FF06A
:100BD000020600D09E72022805D0002404280ED000
:100BE00002E00125F2E7012400252C4301D0032473
:100BF0009C72032806D0002405280BD003E00125B1
:100C0000F3E72BE0012400252C4300D09E72082836
:100C100002D01BE00125F7E70620987216E0DA7291
:100C200014E014489A63824210DD9FED130A83EDAD
:100C30000E0A0BE0FFE7DA631A64B2F1824F05DDBA
:100C4000B2EE000A83ED0F0A83ED100A187800282F
:100C500004D0062904D0072900D11A63BDE8F08129
:100C600003488030C261F9E70C640040B065004081
:100C70000000002000002A4300002A4370B505460A
:100C80002DED028B00F092F9654E664A0446B06283
:100C90001068000E70701168C1F30741B1701368DD
:100CA000C3F30213F3701268012DC2F38002327194
:100CB0005D4A02F1200339D0022D3DD0032D4CD0E6
:100CC000042D53D0052D5AD0062D5ED002F18000A0
:100CD000072D7DD03178002979D00068FFF72EFCF0
:100CE0009FED521B53EC112BFFF71BFB9FED511B8C
:100CF00053EC112BFFF71BFB9FED501B53EC112BFB
:100D0000FFF712FB41EC180B706AFFF717FC53EC6E
:100D1000182BFFF70CFBFFF73DFC00EE900A082DA7
:100D2000C6ED090A65D0092D6CD073E0D2ED020A38
:100D300093ED020A204656E0307A002847D193ED21
:100D4000020AD2ED020A3848503020EE201A90ED07
:100D5000020A601CC1EE000A45E033486030D0ED65
:100D6000020A203890ED020AA01C3CE02E487030A8
:100D7000D0ED020A403890ED020AE01C33E0D6EDD7
:100D80000F0A96ED0E0A201D2DE040EA012096F88C
:100D90005810F27901F0070140EA0140717940EA08
:100DA0000161B07900EE101A40EA0220F27A40EABE
:100DB0000240327B40EA026000EE900A601DFFF7BD
:100DC00009FE0020B071707920F0EB00707100E036
:100DD00002E0BDEC028B70BDD0ED020A12489030EB
:100DE00090ED020AA01DBDEC028BBDE87040FFF73C
:100DF000F1BD0B48D6ED0C0A803090ED070A04F1E6
:100E00000C0005E00848103090ED020A04F10D00D6
:100E1000FFF7E0FD9FED0B0A86ED090AD7E700001A
:100E20000000002018640040FC0B002000000000BF
:100E3000000034400D8E9257E718703F000000000C
:100E40000000F03F00000000014801F050BB00002E
:100E5000EC0F0020014801F04ABB000030100020D8
:100E6000054A016811441422B1FBF2F189000164C2
:100E70000249C16370470000F8FFFDBF0000024057
:100E800030B590F840500124AC40C56B6C600468EC
:100E900063604368102B036803D099600068C260E8
:100EA00030BD9A600068C16030BD000010B50446D6
:100EB000204800EB84002DED028B90ED000A1D48C8
:100EC000503000EB8400D0ED000A20EE200A10EE36
:100ED000100AFFF733FB41EC180B1648203050F88E
:100EE0002400FFF72BFB9FED141B53EC112BFFF796
:100EF0001EFA53EC182BFFF78CFAFFF74BFB00EEB2
:100F0000100ADFED0F0AB5EEC00AF1EE10FA0CD3AD
:100F100010EE100A0B49884207DC0B48D0ED1B0A83
:100F2000B4EEE00AF1EE10FA01D2B0EE600ABDECC8
:100F3000028B10BDFC0B0020000000E051B88E3F7A
:100F40000AD7233C0AD7233C00000020704700004A
:100F500070B5154D1021284601F042FCE0B100208B
:100F6000C4004021284601F03BFCB8B1002004EB4E
:100F700080042021284601F033FC88B1002004EBD6
:100F800040048021284601F02BFC58B10020204469
:100F9000000100F5C16070BD0120E1E70120E6E736
:100FA0000120ECE70120F2E70004004870B5154D80
:100FB0001021284601F014FCE0B10020C4004021BB
:100FC000284601F00DFCB8B1002004EB800420217C
:100FD000284601F005FC88B1002004EB4004802184
:100FE000284601F0FDFB58B100202044000100F527
:100FF000C06070BD0120E1E70120E6E70120ECE7D9
:101000000120F2E7000400482DE9F041044690F881
:101010004000884601280AD0012584F84050204627
:10102000FFF75EFC06004FF0000703D032E002201D
:10103000BDE8F08165642068816821F080418160AD
:10104000B8F1010F04D12068816841F080418160CE
:101050002068816841F00041816001F0C7FB0546CE
:101060000EE001F0C3FB401B0A2809D9606C20F098
:10107000020040F01000606484F840700120D7E75F
:10108000206880680028ECDB606C20F0020040F0F3
:101090000100606484F840703046C9E770477047CB
:1010A0007047704770B5026800234FF0A04495B0B8
:1010B000A24200D1304C009490F84040012C1ED048
:1010C000012480F84040926852074BD4009A9268FD
:1010D000520747D4294A0C6840F61F753CB3946800
:1010E000466B24F4604444EA46344E6834439460CA
:1010F0000468A66806F00306012E06D102E002206D
:1011000015B070BD2468E40731D1009CA46804F0D8
:101110000304012C03D1009C2468E40727D10C6848
:1011200089680C439168A9430C4394601FE091685F
:1011300021F46041916001688C6804F00304012C83
:1011400002D10968C90712D10099896801F0030129
:10115000012903D100990968C90708D19168A943F9
:10116000916004E0416C41F02001416401230021C1
:1011700080F840101846C3E70001005000030050FB
:10118000F0B595B00024009490F840202546012A3F
:1011900019D0012680F84060026893685B077DD40F
:1011A0004B681F27052B11D2D2F830C003EB430345
:1011B0005B009F402CEA070C0F689F404CEA070C2D
:1011C000C2F830C035E0022015B0F0BD0A2B0FD2B6
:1011D000D2F834C05B1F03EB43035B009F402CEA53
:1011E000070C0F689F404CEA070CC2F834C020E09F
:1011F0000F2B0FD2D2F838C00A3B03EB43035B003E
:101200009F402CEA070C0F689F404CEA070CC2F87D
:1012100038C00EE0D2F83CC00F3B03EB43035B0049
:101220009F402CEA070C0F689F404CEA070CC2F85D
:101230003CC0026893684FF0070713F00C0F73D19E
:101240000B680A2B11D3D2F818C00A3B03EB4303F7
:1012500007FA03FE2CEA0E0CD1F808E00EFA03FEA2
:101260004CEA0E0CC2F818C00FE0D2F814C003EB21
:10127000430307FA03FE2CEA0E0CD1F808E00EFA3D
:1012800003FE4CEA0E0CC2F814C002684B69D2F897
:101290000CC0CCF3C10C4FEA4C0C00E0DDE003FACB
:1012A0000CF3D1F810C0DFF810E2BCF1010F42D00E
:1012B000BCF1020F4DD0BCF1030F58D0BCF1040FAC
:1012C00063D0136E91F800C003F0F843B3EB8C6F5A
:1012D00003D1136E23F0004313660268536E91F836
:1012E00000C003F0F843B3EB8C6F03D1536E23F0CF
:1012F000004353660268936E91F800C003F0F84310
:10130000B3EB8C6F03D1936E23F0004393660268B6
:10131000D36E91F800C003F0F843B3EB8C6F03D1A8
:10132000D36E23F00043D3660268936803F003038F
:10133000012B3AD136E0D2F860C00CEA0E0C91F8DD
:1013400000E043EA8E634CEA030C4CF00043136662
:10135000EAE7D2F864C00CEA0E0C91F800E043EA28
:101360008E634CEA030C4CF000435366DCE7D2F882
:1013700068C00CEA0E0C91F800E043EA8E634CEA78
:10138000030C4CF000439366CEE7D2F86CC00CEA35
:101390000E0C91F800E043EA8E634CEA030C4CF02B
:1013A0000043C0E71368DB075CD1CB68012B52F820
:1013B000B03F04D00F78BE40B34313601EE091F8F5
:1013C00000C006FA0CF6334313600A6803680A2A61
:1013D0000AD39E69093A02EB42029740BE438F68E6
:1013E00097403E439E6109E05E69521C02EB420257
:1013F0009740BE438F6897403E435E6109682F4A1D
:10140000102904D0112905D0122906D02AE09368AA
:101410001B0204E09368DB0101E093685B02002B90
:1014200020DB03684FF0A046B34202D1244F00975F
:1014300000E000969F6807F00307012F02D11F68A4
:10144000FF070AD1009F8FB1BF6807F00307012F84
:101450000CD1009F3F68FF0708D0416C41F020018C
:101460004164012480F840502046ADE6102908D0A0
:1014700011291AD01229F5D1916841F480019160A7
:10148000F0E7B342EED1916841F4000191600D495B
:101490000D4A0968B1FBF2F101EB8101490000E05E
:1014A000491E00910029FBD1DCE7B342DAD19168F3
:1014B00041F08071E3E7000000F0FF83000300507B
:1014C00000010050D000002040420F0070B50068BD
:1014D0003E49884278D13E483F4B9FED3E0ACE229E
:1014E00000F6282183ED070A00240C604C608C6014
:1014F00090ED000A93ED071AF8EE400AF4EEC10AE7
:10150000F1EE10FA03DDB8EE400A83ED070A40C899
:101510000D68521E35440D6040C84D6812043544B4
:101520004D6040C88D68120C35448D60E0D191ED5E
:10153000000A2B480423F8EE400A9FED280A80EEAB
:10154000801A80ED001AD1ED010AA0F6F82101F60B
:101550002822F8EE600A80EE801A00EE905AF8EE2B
:10156000600A80ED011A80EE801A80ED021A0020D8
:1015700042F82040401C0828FADB002020C952F81D
:1015800020402C4442F82040401C0828F6DB5B1E1B
:101590001B041B0CF1D112490020B5EE000A2039C2
:1015A00052F8203000EE903A01EB8003401CF8EE38
:1015B000600A082860EE800AC3ED000AF0DB0848E4
:1015C0000C300168491C016070BD00000001005032
:1015D00058010020000000000000002000004E43E1
:1015E000D00B00207047704770B504460068016852
:1015F0004FF0A045490702D54168490705D4016865
:10160000090748D54168090745D5616CC90603D467
:10161000616C41F400716164D5F80813C9060DD0FE
:10162000D5F8081301F01F01052907D0D5F80813D4
:1016300001F01F01092901D0A84201D1C16800E0D1
:10164000E968C26812F4406F1FD189041DD4016893
:1016500009071AD5816849070FD4416821F00C01A8
:101660004160606C20F480706064606CC0040CD4D5
:10167000606C40F00100606407E0606C40F01000B6
:101680006064A06C40F00100A0642046FFF71EFFDC
:1016900021680C20086020680168890602D541682D
:1016A000890605D40168490662D5416849065FD5B7
:1016B000616C41F400516164D5F80813C9060DD07E
:1016C000D5F8081301F01F01052907D0D5F8081334
:1016D00001F01F01092901D0A84201D1C16800E031
:1016E000E968C26C12F0C00F07D08A013AD4C26810
:1016F00012F4406F36D1890434D40168490631D5DB
:10170000D5F80813C9060DD0D5F8081301F01F014C
:10171000062907D0D5F8081301F01F01072901D0C9
:10172000A84201D1C16800E0E96889021AD4816841
:1017300009070FD4416821F060014160606C20F41A
:1017400080506064606CC0050CD4606C40F0010097
:10175000606407E0606C40F010006064A06C40F0D2
:101760000100A0642046FFF799FC21686020086012
:101770002068016809060CD54068000609D5606C30
:1017800040F480306064204600F052F921688020E7
:10179000086020680168C9050DD54068C0050AD5F4
:1017A000606C40F4003060642046FFF779FC2168EB
:1017B0004FF4807008602068016889050DD5406885
:1017C00080050AD5606C40F4802060642046FFF7F5
:1017D00068FC21684FF40070086020680168C90641
:1017E0001BD54168C90618D5A16B012907D0174937
:1017F0008A68D20627D0886800F4404050B1606CF7
:1018000040F480606064A06C40F00200A064204658
:10181000FFF7E9FE2168102008602068016849058B
:1018200010D5416849050DD5616C41F48041616472
:10183000A16C41F00801A1644FF480610160204671
:10184000FFF72DFC70BDC068C007D7E7000300504C
:10185000F0B54FF0000595B004002F462E460095D8
:1018600005D0606CC00648D4606C18B133E001202C
:1018700015B0F0BDA6642665E66484F84060204695
:1018800000F0D8F820688068C00024D42046FFF714
:1018900027F80546606CC0061DD4E5B9606C20F4DD
:1018A000885040F0020060642068816821F0405157
:1018B00081602068816841F08051816056485749B5
:1018C0000068B0FBF1F000EB8000400000E0401E3B
:1018D00000900028FBD120688168C90002D580688B
:1018E00080000AD5606C20F0020040F010006064B7
:1018F000A06C40F00100A0640125606CC0067DD49E
:10190000002D7BD12068816849077CD4616C21F46B
:10191000807141F00201616441494FF0A042904260
:1019200000D1404A0092826802F00302012A02D1EB
:101930000068C00710D1009840B1806800F0030033
:10194000012803D100980068C00705D18868626843
:1019500020F4403010438860D4E902100843A16BA2
:10196000012902D04FF4805200E00022E16942EAEE
:1019700041321043626A3843012A0AD1A9B1616C2D
:1019800021F0020141F020016164A16C41F00101EC
:10199000A164E16A012902D0226B11430843216846
:1019A0008A6812F00C0F08D012E0218D1E4A02EB5B
:1019B0004141014341F48030EBE7CA6844F202033D
:1019C0009A43CA60A169626B890341EA42010843F4
:1019D0002168CA68154B1A400243CA602069012871
:1019E0002068016B21F00F0102D1226A521E1143BF
:1019F0000163A664606C20F0020000E003E040F0A8
:101A00000100606406E0606C20F0020040F010000D
:101A10006064012528462BE7D000002040420F00DB
:101A200000030050000100500000FEFF07C0F0FF5F
:101A3000704700002DE9F04F39490446D0F800C046
:101A400008680026374B03258027401C87B04FF0DD
:101A500090424FF400794FF4006A4FF0200BBCF134
:101A6000A04F07D0DFF8C080C44534D108600128FA
:101A700034D03BE00860012807D1586940F080501D
:101A80005861586900F0805005900F208DE8610082
:101A90006946104600F0E4FD0095CDE9015669461F
:101AA000224800F0DDFD234D2148E5E802062148EB
:101AB000A5E8C00E45F81C6900F06EFD08B1832151
:101AC0002AE0E5630022114612206C6201F008FA58
:101AD000122001F0F9F907B0BDE8F08F586940F025
:101AE00080505861586900F080500590F0208DE8D2
:101AF00061006946104600F0B3FD0D480E4D1430EC
:101B0000E5E802060C48A5E8C00E45F81C6900F09F
:101B100043FD0028D5D0B12108A003F0CCF8D0E7D0
:101B2000A8000020001002400001005000040048FE
:101B300008000240EC0F0020301000202E2E2F5302
:101B400072632F73746D3332663378785F68616CBB
:101B50005F6D73702E63000070B504460068806886
:101B600040075CD494F84000012858D0012084F844
:101B700040002046FEF7E4FE002310B184F8403018
:101B800070BD616C40F60162914341F48071616403
:101B90004FF0A042D2F80813C90602D02168914242
:101BA00006D1616C21F4801161642168C96807E085
:101BB000656C45F4801565641A4DA94208D1D16859
:101BC000890105D5616C21F4005141F480516164B3
:101BD000616CC90404D5A16C21F00601A16400E088
:101BE000A36484F8403023681C211960D2F80813DC
:101BF000C9060ED0D2F8081301F01F01052908D03C
:101C0000D2F8081301F01F01092902D0216891427E
:101C1000B6D121688A6842F004028A6070BD022051
:101C200070BD0000000100502DE9F0470446006837
:101C300090468946806840076ED494F84000012899
:101C40000CD001204FF0A04784F84000D7F80803DB
:101C50004FF00006C00604D0012507E00220BDE8D1
:101C6000F0872046FEF76CFE050002D084F8406045
:101C700053E0606C40F60161884340F4807060641A
:101C8000D7F80803C00602D02068B84206D1606CBD
:101C900020F4801060642068C06807E0616C41F443
:101CA000801161641E49884208D1F868800105D519
:101CB000606C20F4005040F480506064606CC0049C
:101CC00004D5A06C20F00600A06400E0A66484F8AF
:101CD0004060E16B13488862E16B1348C862E16BB6
:101CE0001248086321681C2008602068416841F0A0
:101CF000100141602068C16841F00101C1602168A4
:101D000043464A464031E06B00F071FC2068816830
:101D100041F00401816000E0022528469FE70000B1
:101D20000001005081080008DB080008C508000811
:101D300010B5044690F84000012808D0012084F82E
:101D400040006C212046FEF73FFD10B10BE0022061
:101D500010BD2046FEF7C4FD28B9616C21F48851FE
:101D600041F001016164002184F8401010BD70B59C
:101D7000044690F84000012809D0012084F8400072
:101D80006C212046FEF720FD050002D024E0022051
:101D900070BD2068C16821F00101C160E06B00F0F6
:101DA0008EFB051E03D0606C40F04000606420682C
:101DB000416821F010014160204604D1FEF790FDFA
:101DC000050003D008E0FEF78BFD05E0606C20F411
:101DD000885040F001006064002084F840002846EC
:101DE00070BD2DE9F04104004FF0000604D094F8D6
:101DF0003D00002518B107E00120BDE8F08184F81E
:101E00003C50204600F094F8022084F83D00206801
:101E1000016821F0020101602068016841F00101C0
:101E2000016000F0E3FC07464FF0030804E000F017
:101E3000DDFCC01B0A2862D820684068C007F6D0C5
:101E400020684168C90768D0A169012901683FD0AD
:101E500021F080010160E0690128206801683AD022
:101E600021F040010160206A01282068016835D016
:101E700021F020010160606A01282068016830D0EB
:101E800021F010010160A06A0128206801682BD0B0
:101E900021F008010160E06A01282068016826D06D
:101EA00021F004010160D4E902010843D4E90412DD
:101EB000114308436168491E08432168C8612068CE
:101EC000016821F00101016000F090FC07461CE070
:101ED00041F08001BEE741F04001C3E741F020013D
:101EE000C8E741F01001CDE741F00801D2E741F029
:101EF0000401D7E700F07AFCC01B0A2805D984F852
:101F00003D8084F83C50032077E720684068C00794
:101F1000F0D120684068C00700D02EB125640120B0
:101F200084F83D00002068E7042084F83D0063E762
:101F300000B500680E4987B0884216D10D48C169C6
:101F400041F00071C161C069694600F00070059000
:101F50004FF4C050009002200190002002900390A6
:101F600009200490C00600F07BFB07B000BD000014
:101F700000640040001002400068006810F08040DB
:101F800001D04FF08040704710B50F4A0168914270
:101F900001D1490406E00C4A0832914201D1C90638
:101FA00000E00121094B0A4CCA0701D01A6800E081
:101FB00022680A4206D0CA0701D0196000E02160F9
:101FC00000F06CF910BD0000200001403404014015
:101FD0001404014038B504004FF0000503D094F814
:101FE0002900C00601D5012546E02448816941F059
:101FF00001018161806900F001000090204600F03D
:1020000043F894F82910002009B984F82800606882
:10201000602806D11A492068884201D1602000E07A
:102020007020606021680A68164B1A4002430092D3
:10203000A06810430090A26920F440201043009053
:10204000A28920F4705002F470521043009022696B
:1020500020F40040104300906069009A1043009003
:10206000E069009A10430090206A009A10430090A3
:102070000860012084F82900284638BD001002407D
:10208000200001408FFFBFFF00B50068144B002205
:10209000032185B098420ED180208DE80700694663
:1020A0004FF0904000F0DCFA00221146402000F092
:1020B00017FF402010E00A4B083398420ED1012050
:1020C0008DE807006946074800F0CAFA0022114669
:1020D000412000F005FF412000F0F6FE05B000BDF4
:1020E000200001400004004830B5002238B190F8CB
:1020F0002910C90603D490F82910012902D0012221
:10210000104630BD2A4B0168994201D1490406E0CE
:10211000274B0833994201D1C90600E00121436AE7
:1021200013F0300F3AD0DD06224B234C4FEAC17535
:1021300006D515B11C680C4305E023680B4306E087
:102140001DB11C688C431C6002E023688B43236034
:1021500090F824301A4C9D06184B4FEAC17506D5ED
:1021600015B11C680C4305E023680B430DE055B125
:102170001C688C431C600F4B1B1F1C680C431C60AD
:102180000E4B083309E023688B4323600A4B1B1F67
:102190001C680C431C600A4B0833196001680B680B
:1021A00043F001030B60022180F82910A8E700002A
:1021B0002000014028040140080401402C04014093
:1021C0000C04014030B50022C0B390F82910C906B4
:1021D00056D490F82910012952D1436A99074FD05B
:1021E000294C0168A14201D1490406E0264C08347B
:1021F000A14201D1C90600E00121DD07234B244C97
:102200004FEAC17506D015B11C680C4305E0236880
:102210000B4306E01DB11C688C431C6002E0236880
:102220008B43236090F824301A4C9D071A4B4FEAD9
:10223000C17507D51DB123680B4306E020E01C687B
:102240000C430BE045B123688B432360114B0833EB
:1022500019600E4B083B07E01C688C431C600E4B5A
:10226000083319600A4B083B1C680C431C6001686A
:102270000B6843F001030B60022180F8291000E095
:102280000122104630BD000020000140280401401A
:10229000080401402C0401400C04014070B50546BF
:1022A0001748184C854222D1607904F1800140F032
:1022B0004000607191ED060AD4ED0C0A124A30EE2E
:1022C000600A10EE100A81ED060A904207DCA07940
:1022D0009FED0E0A40F01000A07181ED060AF0EEAD
:1022E000400AC1ED070A94ED1A0A03F0C1FE044842
:1022F0002C30854203D1607940F08000607170BD60
:10230000280E0020000000208FC2F53C8FC2F53C53
:1023100070470000F0B54479134F0368012C1CD0BE
:1023200001264671022404711D6840F6FE74BB420A
:1023300000D1A2B19440A5430C6889680C43944035
:102340002C431C6001680B68C0249440A3430B60BD
:102350000671002141710846F0BD0220F0BDA54381
:10236000D1E90041EAE7000000740040704770B511
:102370000446006801684FF00405890411D5416BDB
:1023800089040ED52571216941F001012161E9021D
:1023900041632068016821F4805101602046FFF705
:1023A000E5FF20680168890012D5416B89000FD5CF
:1023B0002571216941F0020121614FF00051416313
:1023C0002068016821F0805101602046FFF7A0FFDE
:1023D00070BD70B5040003D02079002510B105E070
:1023E000012070BD6571204600F008F802202071C0
:1023F000256101202071002070BD000008B5006833
:10240000104A1149904211D1C86940F00050C8618A
:10241000C869002200F0005000901146362000F0FC
:102420005FFDBDE80840362000F04EBD074A9042EF
:1024300007D1C86940F08060C861C86900F0806059
:10244000009008BD00740040001002400098004059
:1024500018B5046800940068104421B1143000904D
:102460000360002018BD0830F9E730B54279012A31
:1024700012D001234371022202710268146803FA28
:1024800001F52C431460002901680A6806D0C2F3E4
:1024900083420F2A0AD00DE0022030BDC2F383022E
:1024A0000F2A07D14A6842F0010202E04A6842F06E
:1024B00002024A60037100214171084630BD016883
:1024C0000A6822F00E020A6001680A6822F001021E
:1024D0000A6090F84020012303FA02F1C26B5160B8
:1024E00080F82130002180F8201008467047F0B4B1
:1024F000C16B0B6801680A68046C042606FA04F5CF
:102500001D4210D055070ED50A68920603D40A68FA
:1025100022F004020A6090F8401006FA01F5C16B3F
:102520004D60C16A1BE0022606FA04F71F424FF015
:10253000000C4FF0010516D0970714D50A689206D3
:1025400005D40A6822F00A020A6080F8215090F847
:1025500040108E40C16B4E6080F820C0816A002917
:1025600018D0F0BC08470826A6401E4212D0120719
:1025700010D50A6822F00E020A6090F84010C26B73
:1025800005FA01F15160856380F8215080F820C080
:10259000016BE4E7F0BC704770B5040025D0022061
:1025A00084F821002068026843F6F0718A43D4E978
:1025B00001131943D4E903352B43194363691943C4
:1025C000A3691943E3691943114301602046FEF7EB
:1025D00047FC0020A062E06220636063A0630121E9
:1025E00084F8211084F8200070BD012070BD70B502
:1025F000044690F82000002501280CD0012084F822
:10260000200094F821600020012E06D084F82000DC
:102610000225284670BD022070BD022684F8216084
:10262000A0632068066826F0010606602046FEF7D3
:1026300027FCE06A00282068016802D041F00E0102
:1026400006E041F00A0101602068016821F0040100
:1026500001602068016841F001010160D9E70000D4
:102660002DE9F84FDFF86091002209F1040A0AF120
:10267000040B4FF00F080BF1040E9EE0012696406C
:10268000334070D04C68022C01D0122C11D1D408E8
:1026900000EB84073D6A5407E40E08FA04FC25EABF
:1026A0000C05D1F810C00CFA04FC4CEA050CC7F874
:1026B00020C007685400032591F804C0A5400CF021
:1026C000030CAF430CFA04FC4CEA070CC0F800C042
:1026D0004F68012F05D0022F03D0112F01D0122FE8
:1026E00011D18768D1F80CC0AF430CFA04FC4CEA56
:1026F000070CC0F808C04768B7430E79C6F3001648
:1027000096403E434660C668AE438D68A54035435B
:10271000C5604C68E4004FD52C4CA56945F0010517
:10272000A561A46922F0030504F001040094284C7B
:102730002E19B7689407250F08FA05F4A743B0F1DE
:10274000904F04D0234CA04203D101240DE000247B
:102750000BE0214CA04201D1022406E01F4CA04214
:1027600002D1032401E027E00524AC403C43B460DF
:10277000D9F800404D464E689C43F60300D51C43F3
:102780002C60DAF8004055464E689C43B60300D5ED
:102790001C432C60DBF800405D464E689C43F6020B
:1027A00000D51C432C60DEF8004075464E689C4303
:1027B000B60200D51C432C60521C0B6833FA02F49D
:1027C0007FF45CAFBDE8F88F0004014000100240C8
:1027D000000001400004004800080048000C0048C8
:1027E0000069084000D0012070470000014880685F
:1027F00070470000AC00002070B5044690F8C1009E
:10280000022811D094F8C00001280ED0012584F8C8
:10281000C050022084F8C100204601F08BF984F8F2
:10282000C150002084F8C00070BD022070BD10B5FA
:1028300090F8C120022A16D090F8C020012A12D0A8
:10284000012400F8C04F0222427050F8C02CD2F888
:10285000B83323F040430B43C2F8B833447000212F
:102860000170084610BD022010BD000038B50400FC
:1028700053D0022084F8C1000025C4F8C450C4F825
:10288000C850C4F8CC50C4F8D050C4F8D450C4F8E0
:10289000D850207AC0071BD021492068884208D12F
:1028A0002048816941F000518161806900F0005049
:1028B000009020680168228A21F4404102F44042DD
:1028C0000A43A18A22F4405201F4405111430160AD
:1028D000204600F029F8207A800708D52068016892
:1028E00021F44072A18901F440711143016001207B
:1028F00084F8C10084F8C0500021C1EBC10004EB92
:102900008000491C8561C561056245628562C9B266
:1029100005630529F1D9002038BD012038BD00002C
:10292000007401400010024008B500680649884262
:1029300008D10648816941F000518161806900F049
:102940000050009008BD00000074014000100240DB
:1029500000B500680A4985B088420FD14FF4E060A5
:1029600000900220019000200290032003900D208F
:10297000049069464FF09040FFF772FE05B000BD2D
:102980000074014030B590F8C020012A11D0012315
:1029900000F8C03F0222427050F8C02C1468064D67
:1029A00055F821100C431460437000210170084653
:1029B00030BD022030BD0000B800002070B590F896
:1029C000C130022B23D0022380F8C130052920D04A
:1029D0008024036804EBC1141D5925F0070695688F
:1029E000354325F01806D56835431D5194250468F4
:1029F00005EBC115136863519824036804EBC111FA
:102A000052685A50012180F8C110002070BD022088
:102A100070BD01680B6823F0070493682343D468F2
:102A200023F018031C430C60036811685961516856
:102A300002689161E6E7F0B590F8C140022C1CD025
:102A400090F8C040012C18D0012580F8C050022415
:102A500080F8C140D024CC27002604EBC11407EB3A
:102A6000C111102A48D00ADC092A62D2DFE802F03C
:102A7000161B25612F6161613A000220F0BD802A9A
:102A80005DD004DC202A41D0402A52D147E0B2F583
:102A9000807F5ED0B2F5007F4BD164E00268565073
:102AA00001680E5145E00268545824F01F07D3E92D
:102AB00000431C433C4354503BE002685458D3E964
:102AC000007324F4F8641F4344EA871308E00268A3
:102AD0005458D3E9007324F4F8341F4344EA07330D
:102AE000535026E0026854581F889B8824F4F80449
:102AF0001F4344EA8743F3E7026854581F781B7961
:102B000024F0F8541F4344EA0763E9E701680A59CF
:102B100022F01F07D3E900231A433A4308E0016873
:102B20000A59D3E9007322F4F8621F4342EA87127C
:102B30000A5180F8C15080F8C0600020F0BD0168E3
:102B40000A59D3E9007322F4F8321F4342EA0732EC
:102B5000EEE701680A591F889B8822F4F8021F4398
:102B600042EA8742E4E701680A591F781B7922F09C
:102B7000F8521F4342EA0762DAE72DE9F04790F87E
:102B8000C140022C21D090F8C040012C1DD001275B
:102B900080F8C070022480F8C140052918D09C2418
:102BA00004EBC116012A2CD08024A8254FF400592B
:102BB0004FF4405A05EBC11504EBC114022A22D090
:102BC000042A40D0082A5DD13FE00220BDE8F0870A
:102BD000012A06D0022A08D0042A0AD0082A51D194
:102BE0000BE002681968D1614CE002681968516213
:102BF00048E002681968916244E002681968D1628D
:102C000040E0196816E04FF0A408D0F800C008EBC7
:102C1000C1111A684CF80120596891B301680A592A
:102C200022F440520A5101680A59D3F804C042EA1A
:102C30000C0220E00268915124E0514522D19968AC
:102C4000026851511EE01968FAE74FF0AC08D0F85D
:102C500000C008EBC1111A684CF80120596881B115
:102C600001680A5922F440420A5101680A59D3F80E
:102C700004C042EA8C020A5159684945DDD199687D
:102C8000D8E7FFE780F8C170002180F8C01008463F
:102C90009CE770B5044690F8C100022811D094F862
:102CA000C00001280ED0012584F8C050022084F80D
:102CB000C100204601F055F884F8C150002084F886
:102CC000C00070BD022070BD10B590F8C020012A70
:102CD00010D0012400F8C04F0222427050F8C02CDE
:102CE000D2F894330B43C2F894334470002101703E
:102CF000084610BD022010BD10B590F8C020012A72
:102D000010D0012400F8C04F0222427050F8C02CAD
:102D1000D2F898330B43C2F8983344700021017005
:102D2000084610BD022010BD2DE9F041054690F87F
:102D3000C10014460E46022825D095F8C00001288F
:102D400023D0012785F8C070022085F8C100052E28
:102D50001DD0284601F068F8C6EBC60005EB8000E0
:102D60002168016261684162A1688162E168C162B3
:102D7000216901633146284600F0C6FF85F8C1701D
:102D8000002085F8C000BDE8F0810220FBE728683C
:102D90000168D0F8A02321F020036169194321F4D0
:102DA0000063A169194321F48063E169194321F0AB
:102DB000C063216A194321F00063616A1943A36A61
:102DC00021F0404141EA830121F00053216B194376
:102DD00022F48033E26A01601A432868C0F8A02315
:102DE000BAE70000024881680278114481607047A8
:102DF000AC000020074810B5016841F010010160E7
:102E0000032000F08DF8002000F006F800F024F810
:102E1000002010BD0020024070B50D4D04464FF457
:102E20007A712878B1FBF0F00A490968B1FBF0F03B
:102E300000F027FD48B9102C07D200222146501E71
:102E400000F04EF800206C6070BD012070BD0000E5
:102E5000AC000020D00000201A4808B5816941F07C
:102E600001018161806900F001000090032000F001
:102E700057F8002211466FF00B0000F031F80022E5
:102E800011466FF00A0000F02BF8002211466FF097
:102E9000090000F025F800221146501F00F020F82C
:102EA00000221146101F00F01BF800221146901E50
:102EB00000F016F80022BDE808401146501E00F050
:102EC0000FB800000010024000F01F0201219140E5
:102ED0004009800000F1E020C0F8001170470000B8
:102EE000F0B40E4B1B68C3F30223C3F10704042C98
:102EF00000D904241D1D072D01D2002300E0DB1E94
:102F0000012606FA04F56D1E0D409D409E40761E7A
:102F1000164045EA0601F0BC01F067BC0CED00E08C
:102F2000064A00F0070110684FF6FF03184040EA18
:102F30000120034908431060704700000CED00E0D9
:102F40000000FA052DE9F84F044600685C4DC00307
:102F50007ED5E8690026C00008D4E86940F08050BA
:102F6000E861E869012600F080500090554801684A
:102F7000C90511D40168804641F480710160FFF7F2
:102F800035FC074604E0FFF731FCC01B642835D848
:102F9000D8F80000C005F6D5286A10F4407052D069
:102FA000A18801F4407181424DD0286A4FF48037E6
:102FB00097FAA7F1B1FA81F18B0043494FF001086C
:102FC0000B4420F44070C3F8008497FAA7F3B3FAD7
:102FD00083F301EB83010022C1F800242862C007BB
:102FE00031D0FFF703FC074641F2883A4FF002095F
:102FF00007E0FFF7FBFBC11B514502D90320BDE8E9
:10300000F88F99FAA9F0B0FA80F040F040004946F4
:10301000B8EB501F01D128680BE091FAA1F0B0FA8B
:1030200080F040F04000B1EB501F01D1286A00E071
:10303000686A99FAA9F1B1FA81F101F01F0108FA61
:1030400001F21042D5D0286A616820F4407000E097
:1030500006E0084328621EB1E86920F08050E8616C
:103060002078C00705D0286BA16820F00300084332
:1030700028632078800605D5286BE16820F01000D1
:10308000084328632078000605D5E86A216920F402
:10309000F8700843E8622088C00405D5286B616990
:1030A00020F48070084328632088400405D5286BED
:1030B000A16920F480500843286300209FE70000A6
:1030C0000010024000700040000042422DE9F0472D
:1030D000DFF8688104460E46D8F8000000F00700CB
:1030E000B0420CD2D8F8001021F007013143C8F8E3
:1030F0000010D8F8000000F00700B04273D120782B
:103100004F4F800705D57868A16820F0F00008438C
:1031100078602078C00755D06068012201280CD063
:10312000022828D0022393FAA3F1B1FA81F141F0E9
:103130002001490904D0396803E04FF40033F2E775
:10314000796A93FAA3F3B3FA83F303F01F039A4067
:10315000114248D0796821F0030101437960FFF7FB
:1031600045FB0546606841F2883101280CD00228F1
:10317000894615D022E04FF00073D4E7FFF736FB05
:10318000411B494501D916E089467868C0F38100A2
:103190000128F3D116E0FFF729FB411B49450AD866
:1031A0007868C0F381000228F5D10BE0FFF71EFB21
:1031B000411B494502D90320BDE8F087786810F02B
:1031C0000C0FF3D1D8F80010404601F00701B142CE
:1031D0000BD9016821F0070131430160006800F05C
:1031E0000700B04201D00120E6E72078400705D56E
:1031F0007868E16820F4E060084378602078000790
:1032000006D57868216920F4605040EAC1007860F2
:1032100000F022F87968F02292FAA2F201F0F001AF
:10322000B2FA82F2D140074A515CC84006490860B0
:103230000020FFF7F1FD0020BEE700000020024063
:103240000010024030630008D000002001480068F0
:1032500070470000D0000020154B10B55968154884
:1032600001F00C02042A02D0082A01D0124810BD35
:103270004FF4701494FAA4F401F47012B4FA84F4C4
:10328000E2400E4CDB6AA25C0F2494FAA4F403F033
:103290000F03B4FA84F4E340084C1034C903E35C30
:1032A00003D5B0FBF3F0504310BD0548504310BDAB
:1032B00000100240001BB70000127A0010630008E3
:1032C00000093D002DE9F84F04460078F94EC0078B
:1032D0004FF0010526D070684FF40038C0F381002C
:1032E000012807D07068C0F3810002281BD17068E4
:1032F000C00318D598FAA8F0B0FA80F040F020008A
:10330000400901D0306800E0706A98FAA8F1B1FA7B
:1033100081F101F01F0105FA01F1084261D06068F6
:1033200000287DD05DE06068B0F5803F0BD010B123
:10333000B0F5A02F17D0306820F4803030603068AE
:1033400020F4802002E0306840F480303060F06A81
:10335000A16820F00F000843F062606818B3FFF71F
:1033600045FA074609E0306840F480203060EAE71B
:10337000FFF73CFAC01B642870D898FAA8F0B0FA9E
:1033800080F040F02000400901D0306800E0706A11
:1033900098FAA8F1B1FA81F101F01F0105FA01F1E3
:1033A0000842E5D01DE0FFF721FA074604E0FFF7E9
:1033B0001DFAC01B6428DFD898FAA8F0B0FA80F094
:1033C00040F02000400901D0306800E0706A98FAAF
:1033D000A8F1B1FA81F101F01F0105FA01F10842EB
:1033E000E5D12078DFF8D08280074FF0000B4FF056
:1033F000020732D570684FF0F80A10F00C0F07D0B2
:103400007068C0F38100022829D17068C00326D4F7
:1034100097FAA7F0B0FA80F040F02000400900E0F1
:1034200087E001D0306800E0706A97FAA7F1B1FA3E
:1034300081F101F01F0105FA01F1084202D0206973
:10344000012876D130689AFAAAF26169B2FA82F25A
:1034500020F0F80091400843306059E05FE12069B6
:1034600080B395FAA5F0B0FA80F048F82050FFF745
:10347000BDF9814605E0FFF7B9F9A0EB0900022884
:1034800099D897FAA7F0B0FA80F040F020004009F0
:1034900001D0306800E0706A97FAA7F1B1FA81F1C3
:1034A00001F01F0105FA01F10842E4D030686169BA
:1034B00020F0F8029AFAAAF0B0FA80F081400A43AC
:1034C000326025E0FFE795FAA5F1B1FA81F148F8FD
:1034D00021B0FFF78BF9814605E0FFF787F9A0EBF4
:1034E00009000228CCD897FAA7F0B0FA80F040F093
:1034F0002000400901D0306800E0706A97FAA7F117
:10350000B1FA81F101F01F0105FA01F10842E4D19D
:10351000207800076AD5A069A0B395FAA5F0B0FAA3
:1035200080F008EB8000C0F88054FFF75FF9814617
:1035300006E07FE1FFF75AF9A0EB090002289FD8C7
:1035400097FAA7F0B0FA80F040F06000B5EB501F9A
:1035500001D130680BE097FAA7F0B0FA80F040F0A4
:103560006000B7EB501F01D1306A00E0706A97FA33
:10357000A7F1B1FA81F101F01F0105FA01F2104241
:10358000D8D033E0FFE795FAA5F1B1FA81F108EB65
:103590008101C1F880B4FFF729F9814605E0FFF702
:1035A00025F9A0EB090002289CD897FAA7F0B0FAF9
:1035B00080F040F06000B5EB501F01D130680BE0A7
:1035C00097FAA7F0B0FA80F040F06000B7EB501F18
:1035D00001D1306A00E0706A97FAA7F1B1FA81F17F
:1035E00001F01F0105FA01F21042D8D120784007FE
:1035F00072D5F0694FF0000AC00009D4F06940F0BC
:103600008050F061F0694FF0010A00F080500090A6
:103610002A480168C90511D4016841F4807101602C
:10362000FFF7E4F8814605E0FFF7E0F8A0EB0900BA
:10363000642874D821480068C005F5D5E0680128E1
:103640000AD008B1052811D0306A20F0010030629C
:10365000306A20F0040002E0306A40F0010030627D
:10366000E06830B3FFF7C2F881460CE0306A40F002
:1036700004003062F0E7FFF7B9F8A0EB090141F26E
:10368000883081424BD897FAA7F0B0FA80F040F02A
:103690004000B5EB501F01D1306812E097FAA7F057
:1036A000B0FA80F040F04000B7EB501F08D1306A0C
:1036B00007E012E0001002400000424200700040AB
:1036C000706A97FAA7F1B1FA81F101F01F0105FACA
:1036D00001F21042CFD02EE034E0FFF787F88146A8
:1036E00007E0FFF783F8A0EB090141F2883081423F
:1036F00015D897FAA7F0B0FA80F040F04000B5EB8B
:10370000501F01D130680CE097FAA7F0B0FA80F0B2
:1037100040F04000B7EB501F02D1306A01E086E074
:10372000706A97FAA7F1B1FA81F101F01F0105FA69
:1037300001F21042D5D1BAF1000F03D0F06920F0A8
:103740008050F061E06998B37168C1F3810102298A
:1037500070D002284FF080714FF0007A58460AD09E
:1037600091FAA1F1B1FA81F148F82100FFF73EF892
:10377000044657465FE08B4691FAA1F1B1FA81F118
:10378000C14648F82100FFF731F8A84607465546DC
:1037900004E0FFF72BF8C01B022848D895FAA5F0E3
:1037A000B0FA80F040F02000400902D0306801E01B
:1037B00056E0706A95FAA5F1B1FA81F101F01F02A5
:1037C00008FA02F10842E4D1D4E90810084371680C
:1037D00021F47411084370609BFAABF0B0FA80F0EA
:1037E000474649F82080FFF701F8044604E0FEF759
:1037F000FDFF001B02281AD895FAA5F0B0FA80F058
:1038000040F02000400901D0306800E0706A95FA6D
:10381000A5F1B1FA81F101F01F0107FA01F10842A7
:10382000E5D01DE0FEF7E2FF001B022803D90320CC
:10383000BDE8F88F16E097FAA7F0B0FA80F040F0F4
:103840002000400901D0306800E0706A97FAA7F1C3
:10385000B1FA81F101F01F0105FA01F10842E1D14D
:103860000020E5E70120E3E74FF0E02104280869A4
:1038700003D020F004000861704740F00400FAE72C
:10388000704710B5401EB0F1807F01D3012010BDFC
:103890004FF0E02460610F21601700F0A6FF0020C8
:1038A000A06107202061002010BD10B5FFF7E8FFE0
:1038B00010BD000030B590F83C20012A1CD0012238
:1038C00080F83C2003685A689D680C4CA34203D1E1
:1038D00022F470044A68224322F070040A6889685E
:1038E000224325F0800421435A6002689160002140
:1038F00080F83C10084630BD022030BD002C01404D
:10390000022180F83D1001680A6842F001020A6055
:10391000012180F83D1000207047000070B500685C
:1039200086B0B0F1804F18D14FF4004000900225CE
:103930000024CDE901540126CDE9034669464FF044
:103940009040FEF78DFE08200090CDE90154CDE9AE
:10395000034669460248FEF783FE06B070BD0000CC
:103960000004004870B5044690F83C000D4601285C
:103970000ED0012684F83C60022084F83D000C2A19
:1039800045D007DC5AB1042A1BD0082A78D12CE094
:10399000022070BD102A4ED0142A71D15DE020683B
:1039A00001F028F82068816941F0080181612068F0
:1039B000816921F004018161206881692A691143CC
:1039C00011E0206801F05AF82068816941F4006133
:1039D00081612068816921F4806181612068816949
:1039E0002A6941EA022181614AE0206801F086F8F3
:1039F0002068C16941F00801C1612068C16921F0F6
:103A00000401C1612068C1692A69114311E020687D
:103A100001F0B4F82068C16941F40061C161206817
:103A2000C16921F48061C1612068C1692A6941EAE4
:103A30000221C16124E0206801F0D6F82068416DC0
:103A400041F0080141652068416D21F004014165A4
:103A50002068416D2A69114311E0206801F0F6F8F1
:103A60002068416D41F4006141652068416D21F499
:103A7000806141652068416D2A6941EA0221416502
:103A800084F83D60002084F83C0070BD10B504004F
:103A900003D094F83D0010B107E0012010BD0020D4
:103AA00084F83C00204600F00DF8022084F83D0028
:103AB000211D206800F04EFF012084F83D00002009
:103AC00010BD000008B50068B0F1804F08D105486E
:103AD000C16941F00101C161C06900F001000090BD
:103AE00008BD00000010024010B504460068012225
:103AF00000F074FF0B482168814208D00A488142D7
:103B000005D00A48814202D00948814203D1486C5D
:103B100040F4004048642068016841F00101016000
:103B2000002010BD002C0140004001400044014035
:103B3000004801402DE9F0430368D3F8B043D3F8BF
:103B4000B453D3F8B8634FF480774FF4804C4FF4FC
:103B500080194FF08068202977D032DC042962D0A8
:103B600015DC01294DD0022929D124F47C61146887
:103B700041EA8414516807EA81112143946841EABB
:103B80008411C3F8B013126941EA821114E00829C4
:103B90005CD0102913D124F07C51147841EA0464DC
:103BA000117908EA01612143147A41EA0461C3F8FA
:103BB000B013127C41EA02610068C0F8B013BDE89E
:103BC000F083402968D080297AD0B94277D0B1F506
:103BD000007FF4D1147825F0F85141EA046411799A
:103BE00008EA01612143147A127B41EA046126F05C
:103BF000706444EA0262C3F8B4130068C0F8B823E2
:103C0000DDE7116824F03F042143147904F0040433
:103C10000C4391682143C3F8B013126900680A434A
:103C2000C0F8B023CBE724F47C31146841EA0431B6
:103C300054680CEA04340C43916844EA0131C3F837
:103C4000B013126941EA0231B6E711E024F47C01B5
:103C50001488958841EA844409EA854121431489FE
:103C600041EA8441C3F8B013128A41EA8241A3E7D2
:103C7000146825F01F010C43117926F00F0501F09F
:103C80000401214394680C43D168C3F8B443294329
:103C90000068C0F8B81392E7146825F4F86141EAA7
:103CA0008414516807EA811121439468D26841EA7B
:103CB000841126F4707444EA82129CE700E011E05B
:103CC000146825F4F83141EA043451680CEA0131F2
:103CD00021439468D26841EA043126F4704444EAEE
:103CE000023288E725F4F8011488958841EA844473
:103CF00009EA854121431489928941EA844126F4E5
:103D0000701444EA824276E7062911D2DFE801F016
:103D10000911171D23030068D0F8841341F0010135
:103D200004E00068D0F8841341F00201C0F8841365
:103D300070470068D0F8841341F00401F6E700688A
:103D4000D0F8841341F00801F0E70068D0F884133C
:103D500041F01001EAE70068D0F8841341F0200137
:103D6000E4E7F0B5E426056806EBC1174FF0FF3431
:103D700055F807C0B82606EBC116AE59202A25D043
:103D80000CDC042A15D004DC012A12D0022A29D125
:103D90001CE0082A1AD0102A24D10AE0402A08D0B0
:103DA000802A13D0B2F5807F03D0B2F5007F19D1FD
:103DB0000CE0BC2404EBC1145A682A51C0250468E5
:103DC00005EBC1119A68625000240BE0C42404EB97
:103DD000C1145A682A51C825046805EBC1119A68B4
:103DE00062501024FE21A1401A682CEA010CA24066
:103DF000D96842EA0C02A14011431A695D699446F0
:103E0000A2400A43A54099691543A1402943BCF14A
:103E1000080F06D1B20504D4B20102D4DA69A24077
:103E200011430068C151F0BD2DE9F84F80240368AB
:103E300004EBC1155C5924F070445C5107687E594D
:103E4000E82303EBC113009357F803A0E42303EB2B
:103E5000C1139E46FC58D42303EBC1139B46FB5869
:103E6000D7F8A03326F0200C566946EA0C0626F453
:103E7000006C966946EA0C06D2F81CC026F48066EF
:103E80004CEA060C166A2CF0C06C46EA0C0626F0CA
:103E9000006C566A46EA0C0626F0704C966A46EAB2
:103EA0000C06D2F830C026F40036BCF1005F01D118
:103EB00046F4003626F0400C566B46EA0C0C2CF407
:103EC0008028D2F850C04CEA080C2CF0FC78D2F8CC
:103ED00048C04CEA080992F838C02AF01F080CF0D4
:103EE0001F0C4CEA080C2CF00048D2F83CC04CEAFD
:103EF000080C26B924F48078146C44EA0804D2F83B
:103F00004480B8F5606F02D0B8F5F05F01D1402E63
:103F100003D124F4F05648EA0604D66C052921D2D0
:103F2000DFE801F003090F151B00D26A23F400310A
:103F300041EA420316E0D26A23F4802141EA820377
:103F400010E0D26A23F4002141EAC2030AE0D26AF7
:103F500023F4801141EA021304E0D26A23F4001131
:103F600041EA421347F805900268009942F801C0FF
:103F7000026842F80E40026842F80B600068C0F820
:103F8000A033BDE8F88FFEE72DE9F04F8C4A8AB0E8
:103F9000002142F8201002F1100E02F1C0015EF87B
:103FA00020C001EB80070CF1010C4EF820C0A039B5
:103FB00097ED000A01EB80010991D1ED000A02F1B1
:103FC000D00101EB800630EE205AA03901EB8001D0
:103FD00087ED005A96ED000A0891D1ED000A02F132
:103FE000E00101EB800B70EE200AA03901EB8001AB
:103FF000C6ED000A9BED000A079191ED001A02F14F
:10400000F00101EB800A30EE012AA03901EB8001BA
:104010008BED002A9AED000A069191ED001A02F547
:10402000807101EB800930EE011AA03901EB8001AB
:104030008AED001A99ED000A0591D1ED001A02F5FA
:10404000887101EB800570EE212AA03901EB800117
:10405000C9ED002A95ED000A0491D1ED001A02F590
:10406000907101EB800470EE211AA03901EB800100
:10407000C5ED001A94ED000A039191ED003A02F5A6
:10408000987101EB800330EE033A84ED003A93ED32
:10409000000AA03901EB80010291D1ED003A02F54E
:1040A000A07101EB800230EE234AA03901EB8001C0
:1040B00083ED004A92ED000A0191D1ED003A0EF530
:1040C000A07101EB800170EE233A0EF1A00808EB1D
:1040D0008008C2ED003A91ED000ACDF80080D8EDDD
:1040E000004ABCF10A0F70EE244AC1ED004A61D1CA
:1040F000DFF8CCC04FF000080CEB800C4EF82080AD
:10410000DCF804809FED2F0A08F10108CCF8048048
:1041100025EE005ADDF824C060EE800A8CED015ACD
:10412000DDF820C0CCED010A62EE000ADDF81CC00B
:10413000CCED010A61EE000ADDF818C0CCED010AF1
:1041400062EE800ADDF814C0CCED010A61EE800A4F
:10415000DDF810C0CCED010A63EE000ADDF80CC0FA
:10416000CCED010A64EE000ADDF808C0CCED010ACE
:1041700063EE800ADDF804C024EE800ACCED010A6B
:10418000DDF800C08CED010A9FED0F0A87ED000AF3
:1041900086ED000A8BED000A8AED000A89ED000A1F
:1041A00085ED000A84ED000A83ED000A82ED000A25
:1041B00081ED000A5EF820000AB0BDE8F08F000033
:1041C000DC0B0020CDCCCC3D0000000070B53948A0
:1041D0008AB04FF0A0410160012505614FF44031E4
:1041E0000024C561C0E901144462C0E90B540826EB
:1041F0000662C460C0E90564C0E90D54FDF728FB00
:1042000000B1FEE706A92B480694FCF74BFF00B16E
:10421000FEE7009501950725CDE90254049469460F
:1042200024480594FCF7ACFF00B1FEE702200090A3
:10423000019069461F48FCF7A3FF00B1FEE7032089
:104240000090019069461B48FCF79AFF00B1FEE719
:1042500004200090019069461648FCF791FF00B1D8
:10426000FEE70B2000900520019069461148FCF7FD
:1042700087FF00B1FEE70C20009006200190694600
:104280000C48FCF77DFF00B1FEE71020CDE90005EA
:1042900069460848FCF774FF00B1FEE71220CDE93B
:1042A000000669460348FCF76BFF002800D0FEE7D4
:1042B0000AB070BD3C0D002070B51F4886B01D4986
:1042C0000160012505614FF440310024C561C0E95A
:1042D00001144462C0E90B54032606620821C4603D
:1042E000C0E90514C0E90D54FDF7B2FA00B1FEE7CC
:1042F0000420CDE90005CDE90204049469460E4886
:104300000594FCF73DFF00B1FEE70220CDE9006017
:1043100069460948FCF734FF00B1FEE70095CDE996
:10432000016469460448FCF72BFF002800D0FEE733
:1043300006B070BD00010050900D00200E4810B571
:104340000C4901600821416000214FF40032816076
:10435000C0E903124FF44012C0E90521C1610162B6
:1043600041628162C162FDF73CFD002800D0FEE79A
:1043700010BD000000640040E40D0020184810B596
:10438000416986B041F480014161416901F48001D5
:104390000591416941F400314161416901F4003105
:1043A0000591416941F4802141614069002400F494
:1043B00080200590202000900320CDE9010469466B
:1043C0004FF09040FEF74CF9F020CDE900040120B9
:1043D000029069460348FEF743F906B010BD00009D
:1043E000001002400004004870B57948ACB077492D
:1043F0000024C0E900148460FEF738FA00B1FEE73B
:1044000000217348FEF713FA00B1FEE70125CDE95C
:104410002154239421AA29466D482594FEF7ECF9EE
:1044200000B1FEE7202621AA022169482596FEF761
:10443000E3F900B1FEE74FF47A70CDE91D060520DF
:104440001F90082020901DAA05216148FEF7B6FAAA
:1044500000B1FEE7009401940294CDE903454FF0CA
:104460000060CDE9084005940694079480000A9402
:10447000CDE90B406A4605215548FEF755FC00B1D1
:10448000FEE74FF49670269026AB01220521504896
:10449000FEF773FB00B1FEE71420269026AB022244
:1044A00005214B48FEF769FB00B1FEE71E20269070
:1044B00026AB042205214648FEF75FFB00B1FEE76C
:1044C0004FF6FD70CDE91D041DAA00214048FEF7FE
:1044D00075FA00B1FEE7009401940294CDE903451A
:1044E00009940C940D940E940F94109411941294BA
:1044F00013946A46002136481494FEF715FC00B167
:10450000FEE702946A4601213148CDE90345FEF7F2
:104510000BFC00B1FEE7299429AB012200212C48B5
:104520002A94FEF788FA00B1FEE7012229AB114672
:104530002748FEF780FA00B1FEE729AB02220021EE
:104540002348FEF778FA00B1FEE729AB02220121E9
:104550001F48FEF770FA00B1FEE78020CDE9154054
:104560001C48CDE9170419941A941B9415AB012229
:10457000002117481C94FEF78CFB00B1FEE74FF4B6
:10458000007016901448179015AB042201211048B2
:10459000FEF77FFB00B1FEE74FF4807016900F48E6
:1045A000179015AB022200210948FEF772FB00B1FB
:1045B000FEE71DAA01210648FEF700FA00B1FEE75A
:1045C0000348FEF7C5F92CB070BD0000007401402F
:1045D000A80E002000016000000460008000400080
:1045E00010B519488AB04FF080410024C0E900148A
:1045F0006321C0E90241802104618161FFF746FA2D
:1046000000B1FEE7079407A90F480994FFF752F994
:1046100000B1FEE76020CDE9000402940022694663
:1046200009480494FFF79EF900B1FEE7702000905E
:10463000042269460448FFF795F900B1FEE70248F5
:10464000FFF76CF90AB010BD840F0020FEE70000F0
:104650002DE9F0415F4D2846AA7A006A05F18004F1
:10466000022A18D02E465D4FB079D6ED0B1A40F0D5
:104670008001306A07F12006D7ED000A96ED000AA6
:10468000554B401C20EE201A032A0ED0042A27D0B6
:10469000052A5BD088E0C01C2862002001F086FB60
:1046A00094ED060A84ED070A7EE0A971286294ED74
:1046B000070A4B4910EE100A884203DD30EE610A0A
:1046C00084ED070A10EE100A884203DD10EE901AFE
:1046D000994276DA84ED080A84ED091A042033E061
:1046E000A9712862D4ED091AB4EEE11AF1EE10FABC
:1046F00005DD84ED091A94ED071A84ED081A687A2D
:1047000018B1A86AC01DFCF765F994ED070A354990
:1047100010EE100A884205DAD5ED0B0A30EE200AB9
:1047200084ED070A10EE100A88420CDA3068B0F106
:10473000824F08DB97ED000AD5ED0F0AB4EEE00AD0
:10474000F1EE10FA30DD0520A8723AE0A971286276
:1047500094ED071A94ED080AB4EEC01AF1EE10FABF
:1047600003DD31EE611A84ED071AB4EEC01AF1EEE2
:1047700010FA03D910EE900A984222DA84ED061A54
:104780000220A872E879022803D0002104280FD063
:1047900000E001210020014301D00120E871002048
:1047A000FCF784FB85ED0C0AA87A072802D008E004
:1047B0000120F0E7002000F029FD94ED060A84EDC9
:1047C000070AD4ED070A95ED1A0ABDE8F04101F099
:1047D0004FBC000000000020CCCC4C3DFC0B002066
:1047E0008FC2F53CEC51783F70470907090E00284D
:1047F00006DA00F00F0000F1E02080F8141D704789
:1048000000F1E02080F800147047704710B50023D5
:104810004FF08041642438B11E22012806D00228BE
:1048200007D003280BD107E08B6300E08A634C6359
:1048300005E08A63282001E08B631420486304218B
:104840000448FFF751F9BDE8104000210148FFF787
:104850004BB90000840F0020704710B5FEF7C2FA74
:10486000BDE81040FFF721B810B596B00120010453
:1048700002248DE813000490C004CDE908100794C9
:104880006846FEF71FFD00B1FEE70F20CDE90A04E0
:1048900080200C9000200D9001460E900AA8FEF793
:1048A00015FC00B1FEE74FF480400F90801015908A
:1048B0000FA8FEF747FB00B1FEE7FEF7C7FC4FF479
:1048C000FA51B0FBF1F0FEF7DCFF0020FEF7CCFF61
:1048D00000221146501EFEF703FB16B010BD00006B
:1048E0001448016841F4700101601348016841F007
:1048F000010101604168114A114041600168104A9C
:1049000011400160016821F480210160416821F4B7
:10491000FE014160C16A21F00F01C162016B094AC9
:1049200011400163002181600249C00380390860A1
:104930007047000088ED00E0001002400CC07FF8D6
:10494000FFFFF6FECCFC00FF0148FDF710BD0000A4
:10495000800E0020F0B502681B4CDFF870C04FF0ED
:10496000804EA04203D0704501D0604503D122F0B3
:1049700070034A681A43164D164E174FA04209D0CD
:10498000704507D0604505D0A84203D0B04201D0A1
:10499000B84203D122F44073CA681A434B6922F02B
:1049A00080021A4302608A68C2620A688262A04278
:1049B00005D0A84203D0B04201D0B84201D1096964
:1049C000016301214161F0BD002C01400004004061
:1049D00000400140004401400048014010B501235F
:1049E000046A8B409C430462036A8A401343036257
:1049F00010BD0000F0B5026A22F001020262056AF1
:104A000042688369184C25F0020523400C6823F0A6
:104A100003031C438B68164E2B43144D154FDFF8D0
:104A200058C0A84205D0B04203D0B84201D060457A
:104A300006D123F0080ECB6843EA0E0323F00403EB
:104A4000A84205D0B04203D0B84201D0604505D19C
:104A50004D6922F4407215438A692A434260846199
:104A6000496841630362F0BD8FFFFEFF002C0140E7
:104A700000400140004401400048014030B5026A56
:104A800022F010020262046A42688369164D2B40CC
:104A90000D6823F4407343EA052524F020038C6855
:104AA00043EA0413114CA04206D1CC6823F08003E2
:104AB00043EA041323F0400308D00D4CA04205D074
:104AC0000C4CA04202D00C4CA04207D14C6922F4FD
:104AD000406242EA84028C6942EA84024260856153
:104AE00049688163036230BDFF8FFFFE002C0140E7
:104AF00000400140004401400048014030B5026AD6
:104B000022F480720262056A4268C369164C23402F
:104B10000C6823F003031C4325F400738D6843EAFB
:104B20000523124DA84206D1CD6823F4006343EA61
:104B3000052323F4806308D00D4DA84205D00D4D08
:104B4000A84202D00C4DA84207D14D6922F4405230
:104B500042EA05128D6942EA05124260C461496861
:104B6000C163036230BD00008FFFFEFF002C0140D7
:104B700000400140004401400048014030B5026A55
:104B800022F480520262046A4268C369114D24F41F
:104B900000542B400D6823F4407343EA05238D68CD
:104BA00044EA05340C4DA84208D00C4DA84205D06B
:104BB0000B4DA84202D00B4DA84204D14D6922F4FE
:104BC000804242EA85124260C3614968016404621E
:104BD00030BD0000FF8FFFFE002C0140004001406F
:104BE000004401400048014030B5026A22F480329E
:104BF0000262056A4268436D0F4C23400C681C43F7
:104C000025F400330D8943EA05430C4DA84208D032
:104C10000B4DA84205D00B4DA84202D00A4DA84228
:104C200004D14D6922F4803242EA05224260446593
:104C300049688165036230BD8FFFFEFF002C014093
:104C400000400140004401400048014030B5026A84
:104C500022F480120262056A4268436D104C2340C0
:104C60000C6843EA042425F400130D8943EA055334
:104C70000C4DA84208D00C4DA84205D00B4DA842BF
:104C800002D00B4DA84204D14D6922F4802242EAA1
:104C90008522426044654968C165036230BD0000F9
:104CA000FF8FFFFE002C0140004001400044014006
:104CB00000480140FEE7FEE770B5D94B00242DED1A
:104CC000020B2DED108BDDE91010984205DA20F073
:104CD00000429A4201D809D141B19DED100BBDECC3
:104CE000108B02B0BDE8704000F05EBAB0F5801FD6
:104CF00026DA11430BD0002813DA012000F080FAE5
:104D0000BDEC108B02B0BDE8704000F059BA022033
:104D100000F076FA00F030FA51EC100B81F000410F
:104D20009EE06FF035049FEDC00B53EC102B9DED12
:104D3000100B51EC100BFBF7FAFACDE91001084605
:104D400004EB2051C0F31304B948A1F2FF31204411
:104D500000F4801080F07F6282F04052224301EB29
:104D600020559FEDB50B119253EC102B9DED100BC0
:104D700051EC100BFBF7D5FA41EC180BA01CC0F35B
:104D800013009FEDAFDB9FEDB0EBB14E7E440328E7
:104D90006CD296ED000B51EC180B53EC102BFBF77B
:104DA000DBFC1DD1002D01BF96ED000BBDEC108B7F
:104DB00002B070BD2846FBF7BEFC41EC180B53EC6B
:104DC0001D2BFBF7B4FA41EC190B53EC1E2B51ECE5
:104DD000180BFBF7ACFA53EC192BFBF701FA3FE089
:104DE0009FED9D0B51EC180B53EC102BFBF79FFA2A
:104DF0009FED9B1B53EC112BFBF796FA41EC190B23
:104E000053EC182B51EC180BFBF791FA53EC192BC0
:104E1000FBF78DFA41EC190B002D04BF53EC192B55
:104E200051EC180B1AD02846FBF785FC41EC1A0B05
:104E300053EC1D2BFBF77BFA53EC192BFBF774FAA1
:104E400053EC182BFBF76DFA41EC180B53EC1E2BAF
:104E500051EC1A0BFBF76BFA53EC182BFBF761FACA
:104E6000BDEC108B02B041EC100B70BD9FED7E0BC2
:104E700051EC180B53EC102BFBF7B2F941EC100B73
:104E800051EC180B53EC102BFBF7C3FA41EC190B48
:104E90002846FBF750FC41EC1B0B53EC192B51EC53
:104EA000190BFBF744FA41EC1A0B714853EC1A2B1F
:104EB000261851EC1A0BFBF73AFA41EC1F0B6D4820
:104EC000C4F1510404F5D724B0EE4F0AF0EE6F0A96
:104ED0000321784400F0D2F853EC1F2B51EC100B57
:104EE000FBF725FA41EC1C0B6348B0EE4F0AF0EEDD
:104EF0006F0A0421784400F0C1F853EC1A2B51ECEE
:104F0000100BFBF714FA344353EC1C2BFBF768F936
:104F100041EC1C0B002C4CDD9FED510B51EC180BA0
:104F200053EC102BFBF703FA53EC182BFBF7FFF9AC
:104F300041EC1A0B55B353EC1D2B51EC1B0BFBF73B
:104F4000F6F941EC1D0B53EC1C2B51EC1A0BFBF743
:104F500047F953EC192BFBF7EAF953EC1D2BFBF740
:104F60003FF953EC1A2BFBF7DFF953EC182BFBF747
:104F7000D8F941EC180B53EC1E2B51EC1B0BFBF733
:104F8000D6F953EC182BFBF7CCF969E753EC1C2B43
:104F900051EC1A0BFBF724F953EC192BFBF7C7F96B
:104FA00053EC1A2BFBF7C0F953EC182BFBF7BCF9A9
:104FB00056E735B353EC1D2B51EC1B0BFBF7B7F940
:104FC00041EC1A0B53EC1C2B51EC180BFBF7A9F915
:104FD00053EC192BFBF7ABF953EC1A2BFBF7A1F9A8
:104FE00053EC182BFBF79DF941EC180B53EC1E2BDF
:104FF00051EC1B0BFBF79BF953EC182BFBF791F9CA
:105000002EE753EC1C2B51EC180BFBF78AF953ECF1
:10501000192BFBF78CF953EC182BFBF785F91FE7DD
:105020000000F07F0000000000000000000050437E
:10503000645F090000000000000000000000F03F75
:10504000763C7935EF39EA3D0000E0FE422EE63F3E
:10505000E815000000000000555555555555D53F41
:10506000000000000000E03F0000000000000040E1
:1050700086EBF9FF6A1400006014000070B5044666
:105080002DED028B4D1E00EBC500B0EE408AF0EE18
:10509000608A90ED000B35F0060017D053EC182B0A
:1050A00051EC100BFBF743F941EC100B6D1E04EBB8
:1050B000C50090ED001B51EC100B53EC112BFBF7CE
:1050C0008FF841EC100B35F00600E7D1022D36D0F9
:1050D000042D1CD0062D1CBFBDEC028B70BD53EC03
:1050E000182B51EC100BFBF722F994ED0A1B53EC33
:1050F000112BFBF775F853EC182BFBF718F994ED0F
:10510000081B53EC112BFBF76BF841EC100B53EC25
:10511000182B51EC100BFBF70AF994ED061B53EC1E
:10512000112BFBF75DF853EC182BFBF700F994ED0E
:10513000040B53EC102BFBF753F841EC100B53EC22
:10514000182B51EC100BFBF7F2F894ED021B53EC0B
:10515000112BFBF745F853EC182BFBF7E8F894ED0F
:10516000001B53EC112BFBF73BF8BDEC028B41EC21
:10517000100B70BD000000009FED070B10B553EC45
:10518000102B9FED070B51EC100BFBF742F941EC94
:10519000100B10BD00000000000000000000000027
:1051A000000000000000F03F10B553EC102B51EC54
:1051B000100BFBF715F841EC100B10BD00000000C0
:1051C0009FED050B10B553EC102B51EC100BFBF7BA
:1051D00020F941EC100B10BD0000000000000000A1
:1051E00002E008C8121F08C1002AFAD170477047B0
:1051F000002001E001C1121F002AFBD1704700000E
:105200000149086070470000D40000201349144B86
:1052100001F18002886C404200EE900A886492EDB1
:10522000060AF8EEE00A91ED0C1A01EE200A10EEE3
:10523000100A82ED060A984203DC9FED0A0A82ED0D
:10524000060A10EE100A084B984203DB9FED070A8E
:1052500082ED060A086A401C0862704700000020C0
:105260008FC2F53C8FC2F53CEC51783FEC51783F52
:105270002DE9F0472DED108B9FEDD9CA9FEDD9DBBD
:105280009FEDDAFBDB4DA5F110069FEDDB8BA5F161
:105290003C04DFF86C9394ED010A05F1700820EEF0
:1052A0000C0ADFEDD80A20EE200ADFEDD70A04F160
:1052B0004C0080EE201A80ED001A94ED000A20EEDA
:1052C0000C0A10EE100AFBF739F953EC1D2BFBF713
:1052D00028F853EC1F2BFBF79CF8FBF75BF92860D1
:1052E00094ED020A20EE0C0A10EE100AFBF726F9E4
:1052F0009FEDC61B53EC112BFBF713F89FEDC51B5D
:1053000053EC112BFBF785F8FBF744F9203C306098
:1053100094ED030ADFEDC10A04F17C0020EE200ABF
:1053200080ED000A94ED040A9FEDBDEA20EE0E0A1E
:1053300010EE100AFBF702F99FEDBA1B53EC112B8C
:10534000FAF7F5FFFBF726F904F19C0109F1800754
:10535000086097ED03AAB8EE4A0A10EE100AFBF7B0
:10536000EDF894ED060AF0EE080A41EC190B20EE78
:10537000200A10EE100AFBF7E1F89FEDAC1B53EC8E
:10538000112BFBF746F853EC192BFAF7CAFF97EDF0
:10539000040AF8EE4A0A41EC190BB8EE400A30EE66
:1053A000600A10EE100AFBF7C9F841EC100B53EC41
:1053B000102B9FEDA00B51EC100BFBF72AF853ECD0
:1053C000192BFAF7B4FF9FED9D1B53EC112BFAF745
:1053D00007FFFBF7DFF804F1AC010860E069FBF7B9
:1053E000ADF841EC190B7869FBF782F89FED8F1B44
:1053F00053EC112BFAF79BFF53EC192BFBF709F831
:10540000FBF7C8F804F1BC01086094ED050ADFED74
:105410008DCA20EE2C1ADFED8C0A30EEC00AC1EEE8
:10542000000A80EEAC0A10EE100AFBF787F841EC98
:10543000100BFFF741FC9FED859B51EC100B53ECDB
:10544000192BFAF7E6FF9FED83AB53EC1A2BFAF713
:10545000C7FE41EC100B51EC180B53EC102BFAF774
:10546000D8FF9FED7EBB53EC1B2BFAF75AFFFBF7DF
:1054700091F804F18C01086094ED010A20EE2C1AD9
:10548000DFED710A30EEC00AC1EE000A80EEAC0A10
:1054900010EE100AFBF752F841EC100BFFF70CFC72
:1054A00053EC192B51EC100BFAF7B3FF53EC1A2BFA
:1054B000FAF796FE41EC100B51EC180B53EC102B45
:1054C000FAF7A7FF53EC1B2BFAF72BFFFBF762F859
:1054D000C8F8000094ED020A474620EE0E0A10EECE
:1054E000100AFBF72BF89FED5F1B53EC112BFAF71B
:1054F0001EFFFBF74FF804F1DC014C460860D9F8B9
:105500002400FBF71BF894ED070A41EC190B20EE81
:105510000C0A10EE100AFBF711F89FED321B53EC4A
:10552000112BFAF7FEFE9FED311B53EC112BFAF70E
:1055300070FF53EC192BFBF715F812D294ED070A04
:1055400020EE0C0A10EE100AFAF7F8FF53EC1D2BB0
:10555000FAF7E7FE53EC1F2BFAF75BFFFBF71AF89D
:1055600060623C682046FAF7E9FF9FED40AB53ECE0
:105570001A2BFAF7D6FE9FED3FBB53EC1B2BFAF725
:10558000D6FE53EC182BFAF7CFFE41EC190B286826
:10559000FAF7D4FF53EC192BFAF7C9FEFAF7FAFF22
:1055A00028602046FAF7CAFF53EC1A2BFAF7B9FE27
:1055B00053EC1B2BFAF7BBFE53EC182BFAF7B4FE97
:1055C00041EC180B3068FAF7B9FF53EC182BFAF7D7
:1055D000AEFEFAF7DFFF3060BDEC108BBDE8F08760
:1055E000010C403A07CE1951DA1BF03F8F53742457
:1055F00097FFC03F0C0C0020000000000000F03FAF
:105600000000002080CDF7490060EA46BEC11726A1
:105610005305D33FDB8AFD65F7E4C93F810AA83B08
:10562000B10C4B3D1B9E5E29CB10F03F6666666653
:1056300066660A40000000000000544000000000C0
:1056400000003E4000401C4600F07F450000000086
:1056500000D4AA4083DBB5DCE1796B3F6666666601
:10566000661271402F6EA301BC05F03F00000000E0
:10567000000034400D8E9257E718703F2DED0A8BD5
:1056800084B0FDF7B7FBFFF7EFF8FEF777FEFE48B3
:10569000416941F0010141614069002200F00100CF
:1056A000009011460B20FDF71BFC0B20FDF70CFCB6
:1056B000002211460C20FDF713FC0C20FDF704FC22
:1056C000FEF784FDFEF7F8FDFEF738FEF048EF49DF
:1056D000002402C050212A2532C0032640F8104978
:1056E00046628461EA48FCF775FC00B1FEE7E848D1
:1056F000E6492C30083102C04FF4800132C003214A
:1057000040F8104984614162E1482C30FCF762FCAA
:1057100000B1FEE7DE49DF48583108600846FCF773
:1057200058FE00B1FEE7DA4800941022694658306E
:105730000294FCF7EFFD00B1FEE7D548D6496C3086
:105740000160FCF746FE00B1FEE7D148009400225C
:1057500069466C300294FCF7DDFD00B1FEE7FEF710
:1057600043FEFEF73DFFCA4800218030FDF70AF9ED
:10577000C74801218030FDF705F9C5480521803073
:10578000FDF700F9C548FEF7BBF8C548C54E002136
:1057900000887061C248801E0088F060C0480830F0
:1057A00000883061BA486C30FCF75FFEB8481021C1
:1057B0005830FCF75AFE9FEDBC0A00F03DFCF3EEBA
:1057C000040AB2EE040A00F0C1FBB148FCF7FAFC8F
:1057D000AF482C30FCF7F6FCAD48FCF785FCAC4834
:1057E0002C30FCF781FCFBF757F9FBF771F9AF4858
:1057F000016841F040010160DFF8B4A29FEDADAB5C
:105800009FEDAEBB9FEDAFCAAAF170084FF00A0B37
:105810004FF00209A6F18004D8F80000454630B3E5
:10582000FFF726FD0020FEF7AFFB206A10B1401EF7
:10583000206201E0FEF70CFF207AC0B19C4860387E
:105840004068052813D1A07A042810D09848303831
:1058500090ED010A2038D0ED010AA06A20EE201A4E
:105860009AED010A401CC1EE000AFBF7B3F8686824
:10587000A84600287DD00120FEF786FB8C4892497F
:1058800020384068884208DA607940F01000607182
:105890000C20A07200F024FD0DE08C4988420ADD46
:1058A000607920F010006071A07A0C2803D184F890
:1058B0000A9000F063FC8649DAF8040057468842F3
:1058C00008DA607940F00400607184F80AB000F0F2
:1058D00007FD0DE07F4988420ADD607920F0040071
:1058E0006071A07A0A2803D184F80A9000F046FC7F
:1058F000FBF70AF9A07A042804D06D4860384068A4
:10590000FBF7BCF96A482546503800F5727290EDF5
:10591000010A606902EB8001401C81ED000A2169E7
:1059200090FBF1F301FB1300606192ED000A01208E
:1059300084ED060A0DE002EB8003D5ED060A93ED37
:10594000000AB4EEE00AF1EE10FA01DD85ED060A78
:10595000401C8842EFD37F683846FAF7EFFD9FED91
:105960005E1B53EC112BFAF754FD41EC180BA869A0
:1059700000E07AE0FAF7E2FD53EC182BFAF730FC7E
:105980009FED571B53EC112BFAF7D1FC41EC190B8F
:10599000474830384068FAF7D1FDD6ED07CA41ECE8
:1059A000180B1CEE900AFAF7C9FD9FED4F1B53EC44
:1059B000112BFAF7B6FC53EC182BFAF7B8FC9FED55
:1059C0004C1B53EC112BFAF724FD53EC192BFAF76F
:1059D00020FDFAF7DFFD00EE100A85ED1D0AD5ED7A
:1059E0001F0AB4EEE00AF1EE10FA04DDA87A0228EC
:1059F00048D0062846D095ED1C0A384685ED1A0A8F
:105A0000FAF79CFD41EC100B51EC1A0B53EC102BE8
:105A1000FAF7FFFC53EC1B2BFAF789FCFAF7BAFDF7
:105A200035497060884201DD86ED01CA96ED020AB3
:105A3000F2EE040A314830EEC01ABCEEC11A11EE83
:105A4000101A016096ED011A71EE200A2B49091D0A
:105A500030EEC00ABCEEC00A10EE100A0860F0EE8C
:105A60006C0A95ED1A0A00F003FBD8F8080000282C
:105A70003FF4D2AE0220FEF787FA0D4F603FB868C0
:105A800000283DE096E000000010024020000140A8
:105A9000280E00200074004000980040840F002071
:105AA000BAF7FF1F8000002000003443006400406C
:105AB0004C0C00200000000000806140000000004D
:105AC00000002E400000C84200001841000028419C
:105AD0000000AC410000B4410000000000807140B3
